:020000040000fa
:080000000002040000000000f2
:020000040000fa
:040008008003000071
:020000040000fa
:04000c00800300006d
:020000040000fa
:040010008003000069
:020000040000fa
:040014008003000065
:020000040000fa
:040018008003000061
:020000040000fa
:04001c00800300005d
:020000040000fa
:040020008003000059
:020000040000fa
:040024008003000055
:020000040000fa
:040028008003000051
:020000040000fa
:04002c00800300004d
:020000040000fa
:040030008003000049
:020000040000fa
:040034008003000045
:020000040000fa
:040038008003000041
:020000040000fa
:04003c00800300003d
:020000040000fa
:040040008003000039
:020000040000fa
:04004400460300006f
:020000040000fa
:040048008003000031
:020000040000fa
:04004c00800300002d
:020000040000fa
:040050008003000029
:020000040000fa
:040054008003000025
:020000040000fa
:040058008003000021
:020000040000fa
:04005c00800300001d
:020000040000fa
:040060008003000019
:020000040000fa
:040064008003000015
:020000040000fa
:040068008003000011
:020000040000fa
:04006c00800300000d
:020000040000fa
:040070008003000009
:020000040000fa
:04007400c8020000be
:020000040000fa
:040078008003000001
:020000040000fa
:04007c0080030000fd
:020000040000fa
:0400800080030000f9
:020000040000fa
:0400840080030000f5
:020000040000fa
:0400880080030000f1
:020000040000fa
:04008c0080030000ed
:020000040000fa
:0400900080030000e9
:020000040000fa
:0400940080030000e5
:020000040000fa
:0400980080030000e1
:020000040000fa
:04009c0080030000dd
:020000040000fa
:0400a0005803000001
:020000040000fa
:0400a40078030000dd
:020000040000fa
:0400a80080030000d1
:020000040000fa
:0400ac0080030000cd
:020000040000fa
:0400b00080030000c9
:020000040000fa
:0400b40080030000c5
:020000040000fa
:0400b80080030000c1
:020000040000fa
:0400bc0080030000bd
:020000040000fa
:0400c00080030000b9
:020000040000fa
:0400c40080030000b5
:020000040000fa
:0400c80080030000b1
:020000040000fa
:0400cc0080030000ad
:020000040000fa
:0400d00080030000a9
:020000040000fa
:0400d40080030000a5
:020000040000fa
:0400d80080030000a1
:020000040000fa
:0400dc00800300009d
:020000040000fa
:0400e0008003000099
:020000040000fa
:0400e4008003000095
:020000040000fa
:0400e8008003000091
:020000040000fa
:0400ec00800300008d
:020000040000fa
:0400f0008003000089
:020000040000fa
:0400f4008003000085
:020000040000fa
:0400f8008003000081
:020000040000fa
:0400fc00800300007d
:020000040000fa
:040100008003000078
:020000040000fa
:040104008003000074
:020000040000fa
:040108008003000070
:020000040000fa
:04010c00800300006c
:020000040000fa
:040110008003000068
:020000040000fa
:040114008003000064
:020000040000fa
:040118008003000060
:020000040000fa
:04011c00800300005c
:020000040000fa
:040120008003000058
:020000040000fa
:040124008003000054
:020000040000fa
:040128008003000050
:020000040000fa
:04012c00800300004c
:020000040000fa
:040130008003000048
:020000040000fa
:040134008003000044
:020000040000fa
:040138008003000040
:020000040000fa
:04013c00800300003c
:020000040000fa
:040140008003000038
:020000040000fa
:040144008003000034
:020000040000fa
:040148008003000030
:020000040000fa
:04014c00800300002c
:020000040000fa
:040150008003000028
:020000040000fa
:040154008003000024
:020000040000fa
:040158008003000020
:020000040000fa
:04015c00800300001c
:020000040000fa
:04020800800300006f
:020000040000fa
:04020c00800300006b
:020000040000fa
:040210008003000067
:020000040000fa
:040214008003000063
:020000040000fa
:04021800800300005f
:020000040000fa
:04021c00800300005b
:020000040000fa
:040220008003000057
:020000040000fa
:040224008003000053
:020000040000fa
:04022800800300004f
:020000040000fa
:04022c00800300004b
:020000040000fa
:040230008003000047
:020000040000fa
:040234008003000043
:020000040000fa
:04023800800300003f
:020000040000fa
:04023c00800300003b
:020000040000fa
:040240008003000037
:020000040000fa
:04024400460300006d
:020000040000fa
:04024800800300002f
:020000040000fa
:04024c00800300002b
:020000040000fa
:040250008003000027
:020000040000fa
:040254008003000023
:020000040000fa
:04025800800300001f
:020000040000fa
:04025c00800300001b
:020000040000fa
:040260008003000017
:020000040000fa
:040264008003000013
:020000040000fa
:04026800800300000f
:020000040000fa
:04026c00800300000b
:020000040000fa
:040270008003000007
:020000040000fa
:04027400c8020000bc
:020000040000fa
:0402780080030000ff
:020000040000fa
:04027c0080030000fb
:020000040000fa
:0402800080030000f7
:020000040000fa
:0402840080030000f3
:020000040000fa
:0402880080030000ef
:020000040000fa
:04028c0080030000eb
:020000040000fa
:0402900080030000e7
:020000040000fa
:0402940080030000e3
:020000040000fa
:0402980080030000df
:020000040000fa
:04029c0080030000db
:020000040000fa
:0402a00058030000ff
:020000040000fa
:0402a40078030000db
:020000040000fa
:0402a80080030000cf
:020000040000fa
:0402ac0080030000cb
:020000040000fa
:0402b00080030000c7
:020000040000fa
:0402b40080030000c3
:020000040000fa
:0402b80080030000bf
:020000040000fa
:0402bc0080030000bb
:020000040000fa
:0402c00080030000b7
:020000040000fa
:0402c40080030000b3
:020000040000fa
:0402c80080030000af
:020000040000fa
:0402cc0080030000ab
:020000040000fa
:0402d00080030000a7
:020000040000fa
:0402d40080030000a3
:020000040000fa
:0402d800800300009f
:020000040000fa
:0402dc00800300009b
:020000040000fa
:0402e0008003000097
:020000040000fa
:0402e4008003000093
:020000040000fa
:0402e800800300008f
:020000040000fa
:0402ec00800300008b
:020000040000fa
:0402f0008003000087
:020000040000fa
:0402f4008003000083
:020000040000fa
:0402f800800300007f
:020000040000fa
:0402fc00800300007b
:020000040000fa
:040300008003000076
:020000040000fa
:040304008003000072
:020000040000fa
:04030800800300006e
:020000040000fa
:04030c00800300006a
:020000040000fa
:040310008003000066
:020000040000fa
:040314008003000062
:020000040000fa
:04031800800300005e
:020000040000fa
:04031c00800300005a
:020000040000fa
:040320008003000056
:020000040000fa
:040324008003000052
:020000040000fa
:04032800800300004e
:020000040000fa
:04032c00800300004a
:020000040000fa
:040330008003000046
:020000040000fa
:040334008003000042
:020000040000fa
:04033800800300003e
:020000040000fa
:04033c00800300003a
:020000040000fa
:040340008003000036
:020000040000fa
:040344008003000032
:020000040000fa
:04034800800300002e
:020000040000fa
:04034c00800300002a
:020000040000fa
:040350008003000026
:020000040000fa
:040354008003000022
:020000040000fa
:04035800800300001e
:020000040000fa
:04035c00800300001a
:020000040000fa
:10040000af8020000edf20000e01880000000000f9
:10041000000020000000e000020032000001200087
:100420002002880014000700b70007000000e00069
:1004300003003a0080ea200001002000020037009b
:100440000000200001002000810f70000100320038
:1004500014000700000020000000e000020032004d
:100460000000020000000000520e02000000000028
:100470000040da000000fe004440a9000000200017
:100480000000e0000300320000002000a00188000e
:100490004440a800000006008a1f78008b1f7800e7
:1004a0000000060091018800800478000000eb0045
:1004b0001a003700e284440032a0b4009905ba0063
:1004c000e284440032a0b4009906ba00e2844400f9
:1004d00032a0b4000006eb00476fde00fd07b2005b
:1004e000636ce10003003a00ebff07000000eb0043
:1004f0000a003700606ce10004003a00005deb0088
:100500008b05e900fdff3e00040037006168e10053
:10051000010032000086eb000b00070019c7ba008b
:100520001905ba000e04e00003003a000a00e000da
:10053000e0ff3a0000000600fe07b2009e018800be
:100540008a047800f5ff3700395dba008b05e900b1
:100550000c003200295dba008b05e900080032006a
:100560000c00e00003003a00e284440032a0b40032
:10057000f5ff370019ddba008b05e900faff3a00f4
:100580008904e800e184440032a0b40000000600c1
:100590003600f800809fbe00829fbe00849fbe0090
:1005a000869fbe000000fa008660a90000022000bd
:1005b0008205070040062000d905070080002000c2
:1005c0007e050700cd02a9001016800064006000bf
:1005d0000000e00011003a00004080000000e00050
:1005e00003003200e10f5000060032000b0037001c
:1005f000100020000040880010002000cc040700fc
:10060000060037000028ef0040062000c405070060
:100610000000eb00c6040700000000001016800078
:10062000700060000000e00011003a0010408000ff
:100630000000e00003003200e10f5000060032002d
:100640000b00370010002000104088002000200020
:10065000b7040700060037000228ef00400620001c
:10066000af0507000000eb00b10407000000000028
:100670000080fa004f03be004f02be004f01be00d3
:100680004f00be003600f90000400600801f7800d1
:100690000200fa0084e0a90011e1a9001000200086
:1006a000000f78000080fa004f007800004006003c
:1006b000801f78000000fa0087c0a9003622ef00f2
:1006c0003622ef003622ef003622ef003622ef000e
:1006d000b01180000040780006e8b700000000007c
:1006e000000000000080fa004f0078000040060083
:1006f0000000fa0087e0a9000080fa000040060030
:100700000040da000000fe00000005000001be000d
:100710003f0007000470a70003f0a1006509b100c5
:10072000160032000d0035006828e1000600350093
:10073000f0ff2f00f1ff27000300e00013003b0053
:1007400001002800000005000000400081804800f2
:100750008502e900fcff3a0008003700f88f4200ec
:1007600002003c008000eb00000005008100d10089
:100770000080d3008502e800fcff3a000300e0009f
:1007800002003b0060001000e0801800000006003e
:100790000001be001e0007000470a70003f0a100c6
:1007a00003f8a30013003a006509b10010003200fd
:1007b000090035006928e100020035000100280029
:1007c0000000050000004000818048008502e9002b
:1007d000fcff3a0000000600f88f420005003500db
:1007e0008100d1000080d3008502e800fcff3a00c0
:1007f000000006008000eb00000005004f89de00cd
:10080000820178007e0237006011b8008c02370048
:10081000c70ade00f107b200f50fb200080032008f
:10082000e1cf4200020032000170a0002400050068
:10083000810f70000100320004080500440005002b
:10084000810f700002003a00140005008502e900e3
:100850000000400081c04800fcff3b000170a00088
:1008600024000500889fbe008a9fbe008c9fbe00aa
:100870001b0020000202be0005866800060028005a
:10088000060666004709de00f20fb2008200320061
:100890000243e80080003200c729de00f30fb200f7
:1008a0007d0032000343e8007b003200f107b20014
:1008b0000170a000f507b2000570a000c708dd00b8
:1008c0004903de00868070004700dd00c72add0096
:1008d0004923de00868272004722dd0003055100b5
:1008e00004035000858358000300310000004000dd
:1008f000818048000a05e9008c1f78008a9fbe00ad
:1009000004005000858058000402420085824a009d
:1009100000004000818048000005eb000004be009c
:100920006033b8000406be000d48e10056003100f7
:10093000110009004dccd8000c01b8000d02b80020
:100940008481410060824a008283530003045c007a
:1009500084845c0060055d000a00e00025003a0028
:10096000800578000d40e1004900310088007800e2
:1009700007007800110009004d88d8000c01b8006c
:100980000d02b8008481410060824a0060031100ba
:1009900083835b0004045c00e0845c000900e000e9
:1009a00021003a004f01be000300e0002b0032009e
:1009b000e3016000070673008c81710001003200c2
:1009c000640070004200de004e5edd000c0070002e
:1009d000c258de0001e0a00083010700cf017800cb
:1009e000818071004f06be004f05be004f04be005f
:1009f000000006008c8343000d044c00e0844c0092
:100a000060054d000000e9000a00e000d4ff32005c
:100a10008c8343000d044c00e0844c0060054d00c5
:100a20000000e900ceff37000c0343008d834b002c
:100a300060044c00e0844c000000e9000900e00084
:100a4000d8ff32000c0343008d834b0060044c0040
:100a5000e0844c000000e900d2ff37004200de00d5
:100a60004e5edd000c007000c258de0001e0a00008
:100a7000cf0178000300e000daff320060001000d0
:100a8000e0801800d7ff3700f0ff2f00aaff3700e3
:100a9000f0ff2f00b9ff37000404be002f0107004c
:100aa000870678000004fd008104fd002b0107008b
:100ab000078366000678a300030032000960a700e0
:100ac0000800be002c0037000d78a30002003200a1
:100ad0000800be00280037000778a30026003a006f
:100ae00001f0a10009f0a1000668a3000300320094
:100af000f1ff2700f0ff2f00baff37000d68a300b9
:100b0000030032000800be008c807000b5ff370083
:100b10000768a30007003a000648a300030032005c
:100b2000f1ff2700f0ff2f00aeff37000d48a300b4
:100b3000030032006000b8008c807000a9ff37000d
:100b40000748a3000400320001f82700000020003d
:100b50008c807000a3ff3700760107000004fd00c1
:100b60008104fd0002057800720107000802be0042
:100b70008a01780059ff37000160a00012022000ae
:100b80004240880097ff37000100e0001200320069
:100b90000500e00010003200889fbe008a9fbe0062
:100ba0008c9fbe000006eb0001f8a300030032009a
:100bb00060001000e08018000cf0a00005f8a30011
:100bc0000300320060021200e0821a000cf0a20062
:100bd0008005eb0041ff37006000b800020005000f
:100be000038368000700280007036300470ade004c
:100bf0000480a100c71ade000580a100f70f2000c5
:100c00000720e100420032000728e10040003200e6
:100c1000889fbe008a9fbe008c1f7800f107b2003b
:100c2000f307b2000400e000640032000170a0008d
:100c30000500e000680032000370a0008505420056
:100c4000eb07b1000204b8000302b800848444003a
:100c500060854a00020ab800848444000a854a007c
:100c6000030ab80004054500040033000804d0005e
:100c70008984d2000a85d2008b05e9006158e10021
:100c80003d0035000210200009016100030820002a
:100c900089816100f707200087836400088673005c
:100ca000c84cde00c853dd00878474004855de0060
:100cb0000300e000060032008203760004003200e8
:100cc0008904e80060054d000a88a3000c003a0082
:100cd000f70f20000758e10044003d000a70a10012
:100ce000c75ddd000a8575008a0073000900780081
:100cf0004f0678004f05be004f04be0000000600fe
:100d00000a05d1008984d3008b05e800f0ff370085
:100d1000881f78000604780090000700070278001a
:100d20000001fd008101fd008c00070087027800b2
:100d3000850372000778a300050032000001fd0062
:100d40008101fd009f0007004f04780000000600ad
:100d5000850372000748a30003003200f0ff2f0054
:100d6000f1ff2700f8ff37000000200001f82700fe
:100d700088807000f4ff3700880178004848dd0063
:100d8000808171004848de00c850dd00010070001d
:100d9000c850de00060478000b017800160007003a
:100da00088807000d2ff37000500e00005003200a7
:100db000170020003a0007009dff370081037000f4
:100dc000f9ff3a00860078004f0678004f05be0014
:100dd0004f04be000000050083037100f9ff3200dc
:100de000270020002e00070094ff370001f827009d
:100df00086807000f4ff37000100e000260032001a
:100e0000610111007810e10023003c006022b8006d
:100e10007010e100040035008002780001007800c5
:100e20008000eb00700151000200e0000900340076
:100e300070031100062add00822ade008603dd0031
:100e4000878272000200de00860bdd000700700062
:100e50008208de0084817100f4ff270004826200b2
:100e600084817100040028008482620061026000b5
:100e700005f0a600000006000482710007003200a1
:100e80000000e800e0804800000006000002be000c
:100e90006000b800efff37006000b80000000600f7
:100ea000889fbe000004eb006138e10016003a00a4
:100eb0000100e00008003a00c800de004800dd0044
:100ec000880020000100e00003003a00c800de00b6
:100ed0004800dd00680444008184cf00e9845400a8
:100ee000060034008908dd00f08314008703de006b
:100ef000878070000900dd000904440061021400cd
:100f00004f04be00000006000300e00008003a00a5
:100f1000c811de004811dd00880020000300e00059
:100f200003003a00c811de004811dd0068044400e7
:100f30008384cf00e9845400060034008919dd0061
:100f4000f08314008713de00878171000911dd0032
:100f500009044400e1021400e9ff370027002000e3
:100f600001f0a70017002000470bde00f60fb200cb
:100f7000040032000643e8000a0032004702b300d2
:100f80000000060001037800f607b20006037000b7
:100f900002003a000703b300000006008702b30016
:100fa0000000060001037800f607b2000603700097
:100fb000020032000770a000000006000760a000d9
:100fc000000006000478a300040032000578a300a6
:100fd000030032000168a30001003a000200be00d5
:100fe0000160a000000006008101700027003200af
:100ff0008002eb0001f8a300030032006000100043
:10100000e080180015002000f407200002024200d2
:1010100020003400f703200087036000060420004e
:101020000003630002082000000161004700de00a9
:10103000c909dd0000807100c708de000600e0007d
:101040000800320087037100060032001000b00073
:101050000180b0000188a30002003200c108de0058
:101060000402e800f107b200f30f20000320e100c2
:1010700003003d004722dd00810072002900370097
:1010800001f827000000eb00260037006000b800e0
:1010900000000600680212007f20e1000200340018
:1010a0006000b8001f0037006011b8007020e10038
:1010b0000400350080017800010078008000eb001a
:1010c000700252000400e00009003400f003120036
:1010d0000719dd008419de000703dd008681710039
:1010e0000400de00070bdd00060070008408de004f
:1010f000f7ff270083836300870371000600280041
:1011000003036300070032000700e00003003a0019
:101110006101600002817300020032001000b00023
:101120000180b0000500a6000000060001f0a0004c
:10113000000006004f0ade004709de00f107b2009a
:10114000f20fb2000b003200f207b1000170a000f4
:10115000c708dd00c901de00838070004700dd00a4
:101160000400a6000000060060001000e0801800e7
:1011700000000600810f700001003a000000060028
:101180008182cf000500e00010003e008082cf0089
:10119000ee8242007028e1000400390007003e00a2
:1011a000800078000000eb000e0037007083120012
:1011b0008600de000500dd000a0037007083520063
:1011c0008600dd000000eb0006003700e2825200de
:1011d0008508dd00708312000603de008680700043
:1011e0000500dd007507b0000501ea000400a60057
:1011f0000000060060001000e080180000000600fb
:10120000881f7800030478000300e00007003d0019
:1012100060001000e080180060011900e0811900f2
:1012200002003b0001f02d0003003700040007001e
:1012300008f0a70001f0a0004f04780000000600ad
:10124000889fbe008a9fbe00008270000402710069
:1012500004827100260032000004be000200be00bd
:101260006011b8006b092000950220000182cf00b8
:101270000a0039000541b1000082cf0007003900a3
:101280000541b1000982cf00040039000541b100d9
:101290000882cf00010039000541b100054252002b
:1012a000120032000a003b0082817100610164007b
:1012b0008100d1000080d3008984d3000884d3004a
:1012c0008b05e8000442e800f7ff3a00070037000a
:1012d0000804440089844c000000480081804800d4
:1012e0008b05e9000442e900f9ff3a00030007001a
:1012f0004f05be004f04be00000006008100200024
:10130000618055000b003d000b00200061fe2f00a6
:101310000100e1001d003400828171006101640060
:101320008904d1000884d3000000e800faff3a00e5
:101330007100200061006400030070000200600082
:101340000900320061044400e0844c000988a500d3
:10135000050032008b05e8006808e10002003a0051
:101360008904d1000884d300f20f20000258e10064
:1013700005003d00c75ddd00f907b20089807500fa
:1013800008007800000006000bf827008b007800aa
:101390000000050080007800040037003104e00000
:1013a00002003a0000005100000006000101780030
:1013b0000108a300f9ff3a008101780031017800ab
:1013c000f4ef2f00020242000281ea0002016200f3
:1013d0000408280004016100f7ff32008300780050
:1013e000010178003104e000fdff3a0000005100e7
:0413f00000000600f3
:020000040000fa
:1013f4000000fa00c802a900c822a800cc02a80074
:101404008000280080118800113a80000000270025
:101414008080600000002600808f500003003a00a6
:10142400c0002000c011880010003700113a80006d
:10143400000027008080600000002500808f50009d
:1014440003003a00c0002000c011880007003700e4
:10145400113a800000002700008060000000e000d6
:1014640002003a0070062000c0118800000022002b
:101474009011880087e0a90091058000f0ff280002
:101484008080600000002300010070009005880047
:1014940097e0a80087c0a90091058000f08f2f0075
:1014a4000080600000a0a0009005880097c0a800fc
:1014b40031e2a8003342a8000080fa0000000600d0
:1014c4000400fa00004f780011079800c8ff0700d5
:1014d4000d0037000140fe0001003700000000004d
:1014e4009111800000202000008060000000e000d6
:1014f400f8ff3a001e00fb00a01188001e009000b7
:101504000000e900100798001e0090000000e000b1
:10151400f2ff3a000000000091118000001020004a
:10152400008060000000e000fbff32000080fa0051
:10153400000006000000fa0006c8bf000080fa00a0
:10154400000006000400fa00100798000040eb00b9
:10155400104798001100200000c2b300d8ff070014
:101564001100200000c3b300d5ff070011002000c4
:1015740080c7b300d2ff070030c0b300004f78002b
:10158400150037001e00fb004200dd009e009000a5
:101594000008de00004078006f40600010479800ab
:1015a4001e409000e94f5000040034001e4090009b
:1015b4007043b00010479800030037001e409000ad
:1015c4000043b00010479800110020001e40900016
:1015d400bbff07001e4fe9001e4078000004e00036
:1015e400e8ff3d001100200000c2b300b4ff070073
:1015f4000000eb00100798000080fa0000000600cd
:101604000600fa0010079800210798000040eb003c
:10161400104798001100200000c2b300a8ff070083
:101624001100200000c3b300a5ff07001100200033
:1016340080c7b300a2ff070070c0b300004f78005a
:101644001f0037001e00fb004202dd001e01900057
:10165400ae019000f002120004003b008502ea0093
:101664000518de008000eb0004003700851add0059
:101674000410de00008072008418de000040780050
:101684006f406000104798001e409000e94f5000e2
:10169400040034001e4090007043b00010479800ce
:1016a400030037001e4090000043b000104798002c
:1016b400110020001e40900081ff07001e4fe9002a
:1016c4001e4078000004e000deff3d001100200011
:1016d40000c2b3007aff07006000b800100798004a
:1016e400210798000080fa00000006000a00fa00b2
:1016f40040079800e2004700010009008018eb0051
:101704008058eb000040eb00004f78000040eb00f5
:10171400004f7800110037009e81fb004e019000bd
:10172400d0cc2c000010b8004308de006a00b900d9
:10173400000078000000510080407800030047005a
:1017440021409800ce009000d0cc2c000008b800b6
:101754004308de00400798001e4fe8001e40780052
:10176400e44f5000ecff36001100200000c2b3002b
:1017740053ff070050c0b300004f78000a00370041
:101784001e80fb000000e90000004700a04090001c
:10179400114798001e4090000043b0001100200043
:1017a40047ff07001e4fe9001e4078000004e000d8
:1017b400f3ff3a001100200000c2b30040ff07000d
:1017c4000080fa00000006000400fa0010079800e8
:1017d4000000eb00000f7800060037001e009000a8
:1017e4001e004000104078001100200034ff070064
:1017f4001e0fe8001e009000e5fe07009e0f50003b
:10180400f6ff31000080fa00000006000000fa0034
:10181400c902a900cd02a900c082a8006800a800de
:101824006000a800c882a8006820a8006020a80062
:10183400c042a8006bc0a80063c0a8006105800076
:10184400f0ff280080806000000026000100700086
:10185400600588008660a9009660a8000080fa00f0
:10186400000006000600fa0020079800ae00900071
:1018740040062000808f500027003c002e0090007e
:101884000000e000260035002e009000cf80de002e
:10189400d9fb070002002000832c2400f0fb070082
:1018a40002002000a34f2400ccfc070096fb070095
:1018b400000f78001e0078000000e00007003200ee
:1018c400cd02a8001e0078004200dd0060088800f8
:1018d40011e1a8000140fe0011e1a900007d2000f3
:1018e4001e005000100798001e0090000000e00049
:1018f40007003200cd02a9001e0090004200dd0066
:101904006008880011e1a8000140fe0011e1a9006f
:10191400cd02a900030037000000000001003700d9
:10192400000000000080fa00000006000800fa0031
:10193400300798003e009000e10f50001d003a006f
:1019440040062000c7ff07005f000700000f780073
:101954001e0078008000eb00aafb070002002c00a8
:10196400f3472400befb070002002000832c240060
:101974009afc070010079800210798001e009000a9
:10198400ae00900060fb070000007800b5ff070080
:101994001e009000ae0090007cfb07000000780061
:1019a40052ff070011002000a0c0b300c4fe0700ce
:1019b400e5ff37003e009000e20f500009003a00b6
:1019c40040062000a7ff0700401f2000d3000700a7
:1019d4000000eb00a3ff0700401f2000cf0007001a
:1019e400f7ff3700cd02a9000140fe000080fa0095
:1019f400000006000000fa0021e3a90021a3a900c9
:101a040001198000f0cf2f000080600000198800c9
:101a140001198000000e20000100700000198800e8
:101a24002043a9002023a90011198000f0ff210000
:101a340000806000101988002343a9001119800058
:101a440030fc2f0000806000101988002223a900b8
:101a54002203a90025e3a9002119800000f0210038
:101a6400010070002019880021198000f003200073
:101a7400010070002019880029e3a90041198000a1
:101a8400f00f2f00808060000050200001007000e3
:101a94004019880028e3a9004119800000ff2f00a5
:101aa400008060005000b30040198800c062a800a4
:101ab4000080eb00601988002ca3a9003023ef00fc
:101ac4000080fa00000006000200fa00c9ff0700c7
:101ad40021e3a8002023a8000000000000198000d2
:101ae400610060000000e000fcff32002023a90038
:101af40001188000010f780021e3a9001e0078007e
:101b04000080fa00000006000400fa0080002000b3
:101b140029000700ecff0700000f78009e00780002
:101b2400d0cc2c000008b8004408de000040780047
:101b34000040e80020479800be4090002e409000ee
:101b440080cf50001800320011002000d0c0b30034
:101b54005bfe07003e4090000080fb006f004000e9
:101b64008000780000c2b30055fe07001100200079
:101b7400d0c0b30052fe07002e4090000080fb004e
:101b840080007800a0c2b3004dfe070011002000c1
:101b940000c2b3004afe07001e00780069fe070079
:101ba400ae40900031479800000220000200070078
:101bb4000080fa00000006000400fa0010079800f4
:101bc4001e009000e80f500003003a000040eb00b4
:101bd400004f7800100037009e009000401f200046
:101be400808f500003003a0060c6b300004f7800b5
:101bf400090037009e00900000022000808f5000f2
:101c040003003a0050c5b300004f780002003700cb
:101c140050c5b300004f780011028000000e200070
:101c24000100700010028800213a8000f08f2f001c
:101c340000806000203a88001e01fb00800720001d
:101c4400a10920003374200080497800814978007c
:101c540082497800120020006004200071052000f1
:101c640023742000804978008149780082497800f3
:101c74004207a80000000000103a800061006000e4
:101c84000000e000fcff3a0011028000f0f12f0098
:101c940000806000100288000080fa000000060046
:101ca4000000fa00c9e2a9004fe7a8004fa7a90065
:101cb4004f87a900713a8000f00f2f000080600068
:101cc400703a880080002000bbff07001061a90063
:101cd40081088000f0fc2f000080600080088800ec
:101ce4001021a90011a1a90031058000f0ff2800ee
:101cf4000080600000e0a0003005880084e0a900b6
:101d040094e0a8000080eb0060198800bffe070083
:101d1400b7fd07000140fe00feff37000200fa0095
:101d2400000f780000022000a3ff07000621ef0047
:101d34001e0078004400dd006008880011e1a8005e
:0c1d44000140fe000080fa0000000600d4
:020000040000fa
:101d5000000800000400000000000000040800006b
:101d6000040000000000000008080000020000005d
:081d700000000000000000006b
:020000040000fa
:0200000401f009
:04000000ffffff00ff
:020000040000fa
:0200000401f009
:04000800ffffff00f7
:020000040000fa
:0200000401f009
:04000c0000000000f0
:020000040000fa
:0200000401f009
:040010005300000099
:020000040000fa
:0200000401f009
:0400140040000000a8
:020000040000fa
:0200000401f009
:040018009000000054
:020000040000fa
:0200000401f009
:04001c00c20000001e
:020000040000fa
:0200000401f009
:0400200017000000c5
:00000001FF
